:020000040800F2
:1000000000000520BD5D0408F9AD0208FBAD020843
:10001000FDAD0208FFAD020801AE020800000000BD
:10002000000000000000000000000000D11E0208D7
:1000300003AE020800000000711F020805AE0208AE
:100040000D5E04080D5E04080D5E04080D5E0408D4
:100050000D5E04080D5E04080D5E04080D5E0408C4
:100060000D5E04080D5E04080D5E04080D5E0408B4
:100070000D5E04080D5E04080D5E04080D5E0408A4
:100080000D5E04080D5E04080D5E04080D5E040894
:100090000D5E04080D5E04080D5E040831AE020812
:1000A0000D5E04080D5E04080D5E04080D5E040874
:1000B0000D5E04080D5E04080D5E04080D5E040864
:1000C0000D5E04080D5E04080D5E04080D5E040854
:1000D0000D5E04086DAE02080D5E04080D5E040896
:1000E000C9E302080D5E04080D5E04080D5E0408F5
:1000F0000D5E04080D5E04080D5E04080D5E040824
:100100000D5E04080D5E04080D5E04080D5E040813
:100110000D5E04080D5E0408E9AD02080D5E0408DA
:100120000D5E04080D5E04080D5E04080D5E0408F3
:100130008DAE02085DAE02080D5E04080D5E040877
:100140000D5E04080D5E04080D5E04080D5E0408D3
:100150000D5E04080D5E04083DAE02087DAE020887
:100160000D5E04080D5E04080D5E04080D5E0408B3
:100170000D5E040821AE02080D5E040800000000B8
:100180000D5E04080D5E04080D5E04080D5E040893
:100190000D5E04080D5E04080D5E04080D5E040883
:1001A000E9DE02080D5E04087DE302080D5E040826
:1001B0004DAE02080D5E04080D5E04080D5E0408D5
:0801C0000D5E04080D5E040849
:1001D00010B5054C237833B9044B13B10448AFF381
:1001E00000800123237010BD185D00200000000076
:1001F000CCB3040808B5034B1BB103490348AFF364
:10020000008008BD000000001C5D0020CCB3040885
:1002100010B4002483B060F3070461F30F2462F389
:10022000174463F31F64204603B05DF8044B704726
:1002300070B4CCB2C1F30723C5B2C0F30722C1F337
:100240000746090E2D1BD21AC0F30743002425EAE6
:10025000E57522EAE2729B1BC1EB1061EDB285B03D
:10026000D2B223EAE37365F3070421EAE171DBB25A
:1002700062F30F24C9B263F3174461F31F6420468D
:1002800005B070BC704700BF70B4CDB2C1F3072396
:10029000C0F30722C1F3074655FA80F5090E1A4448
:1002A000C0F30743FF2D01EB106133444FF000040E
:1002B000A8BFFF25FF2A85B0A8BFFF22EDB2FF2B04
:1002C000D2B265F30704A8BFFF23FF2962F30F240E
:1002D000DBB2A8BFFF2163F31744C9B261F31F6407
:1002E000204605B070BC70470A0EC1F3074CF0B54C
:1002F000C2F1FF03C6B2C0F30725C1F3072ECCB28B
:1003000003FB06F1C0F3074703FB05F6000E1C4D87
:1003100004FB021185B00EFB0264C0F1FF0603FB73
:1003200007F7A5FB0101002003FB06F3C909A5FBA4
:1003300004640CFB0272FF294FEAD414A5FB02628D
:10034000A8BFFF2185FB0365FF2C4FEAD2121D4495
:10035000C9B2A8BFFF24DB17FF2A61F30700E4B28C
:10036000A8BFFF22A3EBE51364F30F20D2B2013B39
:1003700062F31740DBB263F31F6005B0F0BD00BF4E
:100380008180808070B481F30801C5B2154EC0F33E
:10039000072201FB05F5C0F3074301FB02F2000E43
:1003A000A6FB05C50024A6FB02C285B0C5F3C71590
:1003B00001FB03F3C2F3C71201FB00F165F307046D
:1003C000A6FB0303A6FB010162F30F24C3F3C713CB
:1003D000C1F3C71163F3174461F31F64204605B0EE
:1003E00070BC704781808080FF29C0F30722C0F372
:1003F000074328BFFF2170B4C5B2144E01FB02F2BF
:10040000000E01FB05F50024A6FB02C285B0A6FB89
:1004100005C501FB03F3C2F3C712C5F3C71501FB02
:1004200000F1A6FB030365F30704A6FB0101C3F378
:10043000C71362F30F24C1F3C71163F3174461F3C9
:100440001F64204605B070BC704700BF818080806B
:1004500010B485B0019000208DF80410019BDCB22F
:10046000C3F30721C3F307421B0E64F3070061F3D4
:100470000F2062F3174063F31F6005B05DF8044B73
:10048000704700BF10B485B0019000208DF80510B2
:10049000019BDCB2C3F30721C3F307421B0E64F3D5
:1004A000070061F30F2062F3174063F31F6005B08C
:1004B0005DF8044B704700BF10B485B00190002078
:1004C0008DF80610019BDCB2C3F30721C3F307428A
:1004D0001B0E64F3070061F30F2062F3174063F310
:1004E0001F6005B05DF8044B704700BF10B485B0C5
:1004F000019000208DF80710019BDCB2C3F30721A7
:10050000C3F307421B0E64F3070061F30F2062F38D
:10051000174063F31F6005B05DF8044B704700BFE0
:10052000C2B282B0CBB201909A42009102D00120B7
:1005300002B070479DF805209DF801309A42F6D12F
:100540009DF806209DF802309A42F0D19DF80700F0
:100550009DF80330C01A18BF0120E9E710B5082143
:1005600082B001F0E9FA43680020DCB2C3F307214E
:10057000C3F307421B0E64F3070061F30F2062F31D
:10058000174063F31F6002B010BD00BFB0B1038815
:10059000A3B170B5841C0A4E0A4D02E034F8023B48
:1005A0005BB1A3F12002194628465F2A84BF194691
:1005B00030462DF08DFA002CF0D170BD704700BF91
:1005C000C4440608C04406080FB42DE9F04184B0C5
:1005D0009448954D0AABDFF89482944E53F8044B3F
:1005E00003932DF075FA0021234601E0252A0CD053
:1005F0001C4613F8012B002AF8D18D482DF068FA1B
:1006000004B0BDE8F04104B07047002968D16378B8
:100610000234243B512B61D8DFE813F085006000E1
:1006200077006000600060006B00600060006000A8
:1006300060006000660060006000600060006000B4
:1006400060006000600060006000600060006000AA
:10065000600060006000600060006000600060009A
:10066000600060006000600060006000600060008A
:10067000600060006000600060006000600060007A
:10068000600060006000600060006000600060006A
:1006900052006000600060004101320160002A01E8
:1006A000F600EE00E600DE0060006000D6006000AC
:1006B0006000C500BB006000AE00A0009800900084
:1006C000039800F10C03026803936AB1116887680C
:1006D00043680968574800972DF0FAF9012183E72C
:1006E00028462DF0F5F992E753482DF0F1F9012154
:1006F0007AE7039B191D1A680391002AF4D0136846
:100700004E4819682DF0E4F9E8E7039B03F108016E
:100710001A680391002AE7D011685B6809684848A5
:100720002DF0D6F9DAE7039B1A1D1B680392002B04
:10073000DAD0196843482DF0CBF9CFE7039B424844
:100740001A1D196803922DF0C3F9C7E7039B3F48B0
:100750001A1D196803922DF0BBF9BFE7039B3046C1
:100760001A1D1F6803922DF0B3F93846FFF70EFFEC
:1007700030462DF0ADF9B1E7039F3548FA68396886
:10078000D7E901C310370092624603972DF0A0F914
:10079000A4E7039B2F4803F10807D3E9001203974E
:1007A0002DF096F99AE7039F2B4897F803C004377A
:1007B00017F8023C17F8032C17F8041CCDF800C0FA
:1007C00003972DF085F989E7039B24481A1D1968C2
:1007D00003922DF07DF981E7039B21481A1D1968CA
:1007E00003922DF075F979E7039B40461A1D1968AD
:1007F00003922DF06DF971E7039B1A481A1D1968D1
:1008000003922DF065F969E7039B1748073323F03E
:10081000070303F10801D3E9002303912DF058F9F0
:100820005CE700BFCC440608D4440608602C0608E8
:10083000B43306086C450608F8440608A0450608C7
:10084000AC45060848390608D8440608EC440608B2
:100850003C45060834450608204506084C45060870
:10086000243406085C450608DC440608D84506081A
:10087000039B11481A1D196803922DF029F92DE7E1
:10088000039B19680433A1F12000039389B283B25A
:100890005F2B94BF09480A482DF01AF91EE7039B05
:1008A0001A1D1B6803921BB106482DF011F915E7BC
:1008B00005482DF00DF911E7E0440608104506083B
:1008C00018450608004506080845060808B5FFF75C
:1008D0005DFEBDE808402DF00DB900BF034A0023BE
:1008E000C0E90021C0E90233704700BFE80A0608EA
:1008F000704700BF43684BB1054AD96812689142FE
:1009000004D019681846DA60CB691847704700BFF1
:100910006C6B0020704700BF70B50E46054648B3AB
:10092000E8682DF0C1F80446A8B1E96820462DF02A
:1009300001F932462B69204600219847154BE9689A
:100940002046D3E90252294401325D68DA60A5608D
:10095000C3E9014170BD40F273220F490F482DF0E9
:10096000B7F80F482DF0B4F80E482DF0B1F82DF07F
:10097000C1F8DAE74FF41B72074908482DF0A8F8D0
:1009800009482DF0A5F807482DF0A2F82DF0B2F88F
:10099000C6E700BF6C6B0020E8450608F445060872
:1009A00024460608B43306080C4606082DE9F84329
:1009B000D0F800C00027254B1D68DCF8083083B153
:1009C0005E6876B11C6874B32C4204D02BE02C42D4
:1009D00003F1080324D19C681E46002CF7D1DE6881
:1009E0000EBBDFB1DCF804300446F86816468846D2
:1009F000D3F80C902DF058F80546B8B1F9682846A0
:100A00002DF098F8324641463B6944F8095020469B
:100A100098470F4AFB6891680B449360BDE8F883E0
:100A2000F668002EDDD0B3683746C8E74FF435725C
:100A3000084909482DF04CF808482DF049F80848B5
:100A40002DF046F82DF056F8D8E700BFAC6B00202B
:100A50006C6B0020E8450608F445060824460608A5
:100A6000B43306080268526870B5D56842596AB155
:100A700011680446064ACE68936889699B1B936097
:100A8000884760592DF01AF80023635170BD00BFEC
:100A90006C6B0020F0B50E4683B000286FD08368E1
:100AA00005687BB1374A11681A681AB904E053F82F
:100AB000082F0AB10A42FAD05A681AB19368156829
:100AC000002BF1D1304F3B6953B15A68954204D1A4
:100AD00021E06268AA4221D023461C68002CF8D18C
:100AE0000C202CF0E1FF0446002839D0BB6800221E
:100AF00065600C33A2603A69BB6022603C610021F2
:100B00003046FFF709FF2B6801909847019A10467D
:100B1000A26003B0F0BD1C4607F110032168A26873
:100B200019602AB13B69104623603C6103B0F0BDF7
:100B300040F25932154916482CF0CAFF294615488B
:100B40002CF0C6FF14482CF0C3FF2CF0D3FF3B69F8
:100B5000A26823603C61002AD1D0104603B0F0BDEA
:100B600040F2623209490A482CF0B2FF0B482CF0DF
:100B7000AFFF09482CF0ACFF2CF0BCFFB6E70546F0
:100B8000A0E700BFAC6B00206C6B0020E8450608B6
:100B9000F445060850460608B4330608584A0608C5
:100BA00038B505460C4679B165B12B689C4206D034
:100BB00013B904E09C4202D05B68002BFAD1002BF1
:100BC00008BF0025284638BD40F2A532064907482F
:100BD0002CF07EFF06482CF07BFF06482CF078FFB7
:100BE0002CF088FFE0E700BFE8450608F44506085A
:100BF0000C460608B433060861B158B1884209D0E2
:100C0000034601E0994202D05B68002BFAD1002B29
:100C100008BF0020704700BF00B10068704700BFE8
:100C200098B138B505460C202CF03EFF044668B15B
:100C30000E4B0021A5605A69C4E9002102B154603D
:100C40009A685C610C329A6038BD704740F232425B
:100C5000074908482CF03CFF07482CF039FF0748AB
:100C60002CF036FF2CF046FFE2E700BF6C6B002053
:100C7000E8450608F44506089C460608B43306080D
:100C8000002832D038B51A4D04466B694BB19A68CA
:100C9000904203D117E09A68A24214D01B68002B3F
:100CA000F9D140F26B42134913482CF011FF214651
:100CB00012482CF00DFF12482CF00AFF2CF01AFFFE
:100CC00000231B68FFDED3E9001209B14A605A68AD
:100CD00062B1116000221846C3E900229A602CF02C
:100CE000EDFEAB680C3BAB6038BD70476961F1E766
:100CF0006C6B0020E8450608F4450608C446060863
:100D0000B433060870B505460C460A4E14F1FF349C
:100D10000FD355F8043B1846002BF7D03268D9683A
:100D20009142F3D01968DA60CB69984714F1FF3427
:100D3000EFD270BD6C6B00202DE9F041354C22687C
:100D4000D4F8148001322260B8F1000F5DD045461E
:100D5000AB6818463BB1D968914204D01968DA6093
:100D6000CB69984722682D68002DF1D110462A4D95
:100D700001F096F9206801F0CFF9206801F0E2F95E
:100D80002768236983B19A681968002A30D0D2682D
:100D9000184697422CD029602CF090FEA2682B6850
:100DA0000C3AA260002BEED165681C4F2846C5B1F5
:100DB000EA682368D5F808C09A421CD02968D4E9AB
:100DC0000223CE68013BC7F800C0921B8969C4E9C1
:100DD0000223884728462CF071FE3D682846002DE6
:100DE000E6D101F025FDB8F1000F08D0BDE8F08193
:100DF0001D460B46C6E705F108076546D6E702F033
:100E000041F9BDE8F04101F02BB801F061F9226829
:100E1000ACE700BF6C6B00207C6B0020706B002087
:100E2000054B10B55C6834B1236820465B69984770
:100E3000A468002CF8D110BD6C6B00202DE9F047A0
:100E40006A4D002840D1AA68EB692C6A13446848AF
:100E5000D5E909121C44EB6A0C441444A342B8BF00
:100E6000EC622CF035FE6348D5E902122CF030FE1E
:100E70002A6B296A60482CF02BFE696A5F482CF0C7
:100E800027FEA96A002902DD5D482CF021FEE969F0
:100E9000002902DD5B482CF01BFE2146EA6A5A4815
:100EA0002CF016FE52482CF013FEAC6944B12046DB
:100EB00024682CF003FEEA69103AEA61002CF6D1AE
:100EC0000023AB61BDE8F0876F68AE695FB3DFF800
:100ED0004091DFF84081DFF840A13A6856B1B3682D
:100EE00034469A4203D153E0A3689A4250D0246812
:100EF000002CF9D110202CF0D7FD0446002866D034
:100F000039680022AB69C4E90212C4E9003203B1B6
:100F10005C60EA6926460123AC611032EA61BF6871
:100F2000E360002FD9D14FF0000C002E49D033469A
:100F30000127D3E9002199B1CC68D86884420FDA3F
:100F40000A601A68002A3AD051605A68516800272E
:100F5000C3E900215360596800292AD00B601A6840
:100F60000AB11346E5E7002FDFD0BCF1000F00D037
:100F7000AE61AC69002C3FF466AF244EA3683046E6
:100F8000E1681A682CF0A4FD2468002CF6D15AE719
:100F9000E368616801330029C1D022680A602268D1
:100FA00002B1516000222660AC6162607460264626
:100FB000B5E71E460F464FF0010C1346B9E70A4647
:100FC000C4E7BCF1000F3FF43EAFAE613BE740F237
:100FD0000712494640462CF07BFD50462CF078FD28
:100FE00003482CF075FD2CF085FD89E76C6B002023
:100FF000B43306080C470608344706085847060865
:10100000A0470608EC47060818480608EC460608FC
:10101000E8450608F4450608584A0608C0E90012E3
:10102000704700BF10B485B06C460DF1100C84E819
:101030000C000CE90300009B029A9A4204D00120A4
:1010400005B05DF8044B70470398019BC01A18BFA8
:10105000012005B05DF8044B704700BF82B030B48A
:1010600082B002AC069D059304E90600DDE900218B
:10107000491BD31AC0E9003102B030BC02B070473E
:1010800082B030B482B002AC059304E90600069940
:10109000DDE9002529441344C0E9003102B030BC29
:1010A00002B0704782B002AB03E90600019A009BD0
:1010B00052425B42C0E9003202B0704730B482B0A5
:1010C00005466C4684E80600009394E8030085E832
:1010D0000500284602B030BC704700BF30B482B073
:1010E00005466C4684E80600019394E8030085E811
:1010F0000300284602B030BC704700BF0B460C21ED
:1011000010B50446184600F017FD043003C884E803
:101110000300204610BD00BF30B4029DC0E900129C
:10112000C0E9023530BC704782B070B483B0044669
:101130006E4606AD86E8060096E8030045F8043FD3
:1011400004F1080384E8050095E8030083E8030040
:10115000204603B070BC02B0704700BF84B00DF1F0
:10116000100C0CE90F00049B009A9A4202D0012057
:1011700004B07047019A059B9A42F8D1029A069BE7
:101180009A42F4D10398079BC01A18BF0120EFE7D9
:1011900084B00DF1100C0CE90F00049B009A9A42E8
:1011A0000DDC029A9A420ADD059B019A9A4206DCFE
:1011B00003989842D4BF0020012004B0704700205B
:1011C00004B0704784B00DF1100C0CE90F00029AC6
:1011D000009B9A4207DD0398019B9842CCBF0020F8
:1011E000012004B07047012004B0704784B070B48F
:1011F00004AC099E84E80E00079A059DB418089A6D
:10120000AD1B069E891AC46032444560016082604D
:1012100070BC04B0704700BF84B02DE9F0410DF1FF
:101220001C0C0C4605460E9EDDE90A088CE80E00F3
:10123000DDE90812DDE90CE7944201DB00221446E7
:10124000814201DB00200146B84501DB0027B8469A
:10125000B64501DB0026B6464445B8BF4446BA420F
:10126000A8BF3A467145B8BF71468642A8BF064638
:10127000944201DB00221446B14201DB00263146D4
:1012800028462C60EE60C5E90112BDE8F04104B0CB
:10129000704700BF84B0F0B506AD0D9CDDE9097E56
:1012A00085E80E000A46DDE90713DDE90BC69A4220
:1012B00018DA0025B94202DB002701253946B64578
:1012C00001DB0026B646A44508DABDB1C0E900EC52
:1012D000C0E90264BDE8F04004B0704735B10024B5
:1012E000A446F3E7002301251A46E3E7C0E90237E5
:1012F000BDE8F040C0E9002104B07047B645F5D024
:101300007245A8BF7246B342B8BF33466145A8BF15
:101310006146BC42B8BF3C469A4201DB2B462A4696
:10132000A14201DB00242146C0E90234BDE8F040BF
:10133000C0E9002104B0704784B0F0B506AD0D9C43
:10134000DDE9097E85E80E000A46DDE90713DDE9DF
:101350000BC69A4218DA0025B94202DB00270125A4
:101360003946B64501DB0026B646A44508DABDB1CC
:10137000C0E900ECC0E90264BDE8F04004B0704789
:1013800035B10024A446F3E7002301251A46E3E71C
:10139000C0E90237BDE8F040C0E9002104B0704761
:1013A000B645F5D07245B8BF7246B342A8BF3346C2
:1013B0006145B8BF6146BC42A8BF3C469A4201DBCA
:1013C0002B462A46A14201DB00242146C0E9023413
:1013D000BDE8F040C0E9002104B0704784B0F0B42B
:1013E00005AD099F0A9E0C4685E80E00079DE41B8B
:1013F0000699ED1B089A891B921B8560C0E9004184
:10140000F0BCC26004B0704784B070B404AD089EF4
:101410000C4685E80E00099A3444069D059935442A
:10142000079E114485603244C0E9004170BCC2602F
:1014300004B0704784B00DF1100C0CE90F00039854
:10144000019BC01A04B0704784B00DF1100C0CE978
:101450000F000298009BC01A04B0704784B00DF1D1
:10146000100C0CE90F0002980099039B019A401A96
:101470009B1A03FB00F004B0704700BF84B030B487
:1014800003AD069C85E80E00049D059B641B5B1A5A
:10149000C0E9003430BC04B0704700BF84B070B401
:1014A00004AD079C0E4685E80E00059D0021069AB6
:1014B000641B0160921BC46070BCC0E9011204B0DF
:1014C000704700BF84B070B404AE079C86E80E007D
:1014D000059A0B460699A41A48BF0134C91A48BF99
:1014E000013102EB640203EB6103426070BC0360F4
:1014F00004B0704784B070B404AC099E054684E81B
:101500000E000899DDE9043216440B44CDE9063695
:1015100094E80F0085E80F00284670BC04B07047BF
:1015200084B070B404AC089D84E80E00099C069E4B
:1015300005604460DDE90423AA1AE31A079D3244DA
:101540002B4470BCC0E9022304B0704784B070B46F
:10155000089E04AC054684E80E00049694E80F004B
:1015600085E80F00284670BC04B0704784B070B4A2
:10157000089E04AC054684E80E00059694E80F002A
:1015800085E80F00284670BC04B0704784B070B482
:10159000089E04AC054684E80E00069694E80F0009
:1015A00085E80F00284670BC04B0704784B070B462
:1015B000089E04AC0546079684E80E0094E80F00E8
:1015C00085E80F00284670BC04B0704784B070B442
:1015D00004AC089E054684E80E000B46334406938F
:1015E00094E80F0085E80F00284670BC04B07047EF
:1015F00084B070B404AC089E054684E80E00059BD8
:101600003344079394E80F0085E80F00284670BC28
:1016100004B0704784B070B404AC08AE054684E8EA
:101620000E0096E8030084E8030094E80F0085E8C4
:101630000F00284670BC04B0704700BF84B070B47F
:1016400004AC08AE054684E80E0006AB96E803003D
:1016500083E8030094E80F0085E80F00284670BC7B
:1016600004B070470B46142110B50446184600F02C
:1016700063FA04300FC884E80F00204610BD00BF95
:1016800010B4C0E9001283605DF8044B704700BFDE
:10169000A9B170B54D1E00F10C04094E54F80C3C74
:1016A000013D0C3418463BB13268D968914203D0F1
:1016B0001968DA60CB6998476B1CEFD170BD704731
:1016C0006C6B002082B084B00DF1100C05930CE916
:1016D0000700019A9A4203D0012004B002B070477B
:1016E000029A069B9A42F7D10398079BC01A18BF2B
:1016F000012004B002B0704784B004AB03E90700D6
:10170000DDE9010304B0184784B004AB03E9070026
:10171000DDE9010304B0184784B004AB03E9070016
:10172000DDE9010304B0184784B004AB03E9070006
:10173000DDE9010304B0184784B004AB03E90700F6
:10174000DDE9010304B0184784B004AB03E90700E6
:10175000DDE9010304B0184784B004AB03E90700D6
:10176000DDE9010304B0184784B004AB03E90700C6
:10177000DDE9010304B0184784B004AB03E90700B6
:10178000DDE9010304B0184784B004AB03E90700A6
:10179000DDE9010304B0184710B584B004AC04E9D6
:1017A0000E000446DDE901139847204604B010BD41
:1017B00010B584B004AC04E90E000446DDE9011361
:1017C0009847204604B010BD86B001AB83E80700FF
:1017D000029B06B0184700BF84B004AB03E90700C2
:1017E000DDE9010304B0184784B004AB03E9070046
:1017F000DDE9010304B0184784B004AB03E9070036
:10180000DDE9010304B0184710B584B004AC04E965
:101810000E000446DDE901139847204604B010BDD0
:1018200084B004AB03E90700DDE9010304B0184705
:1018300084B004AB03E90700DDE9010304B01847F5
:1018400084B004AB03E90700DDE9010304B01847E5
:1018500084B00DF1100C0CE9070019460198039BA8
:1018600004B0184784B00DF1100C0CE907001946BC
:101870000198039B04B0184784B00DF1100C0CE9DB
:10188000070019460198039B04B0184784B00DF176
:10189000100C0CE9070019460198039B04B0184787
:1018A00084B00DF1100C0CE9070019460198039B58
:1018B00004B0184784B00DF1100C0CE9070019466C
:1018C0000198039B04B0184784B00DF1100C0CE98B
:1018D000070019460198039B04B0184784B004AB75
:1018E00003E907000198039B04B0184784B00DF189
:1018F000100C0CE9070019460198039B04B0184727
:1019000084B00DF1100C0CE9070019460198039BF7
:1019100004B0184782B030B486B008AC01AD44F8CA
:10192000043F04AB85E8070094E8030083E8030064
:10193000019893E80600039B06B030BC02B018473C
:1019400082B070B489B0064601AC0CAD84E80700E3
:1019500045F8043F04AC95E80F0084E80F00079BAE
:1019600030460E9394E80E00039CA44609B070BC68
:1019700002B0604784B00DF1100C0CE90700009331
:1019800019460198039B04B0184700BF84B00DF1BD
:10199000100C0CE9070019460198039B04B0184786
:1019A00084B00DF1100C0CE9070019460198039B57
:1019B00004B0184784B00DF1100C0CE9070019466B
:1019C0000198039B04B0184782B030B486B008ACCD
:1019D00001AD44F8043F04AB85E8070094E8030038
:1019E00083E80300019893E80600039B06B030BC2F
:1019F00002B0184784B00DF1100C0CE9070019462D
:101A00000198039B04B0184784B00DF1100C0CE949
:101A1000070019460198039B04B0184784B00DF1E4
:101A2000100C0CE9070019460198039B04B01847F5
:101A3000B8B1B1B170B5044610200E462CF034F8A0
:101A4000054678B10E490022EC600B68AE60C5E92E
:101A5000003203B15D600B4A0D60136810331360F0
:101A600070BD70479C22084908482CF031F808489E
:101A70002CF02EF807482CF02BF82CF03BF8E1E77F
:101A8000A46B0020906B002044480608F44506082B
:101A900054480608B433060800B310B5114C236847
:101AA0004BB1DA68904203D106E0DA68824203D093
:101AB0001B68002BF9D110BDD3E9001209B14A60AF
:101AC0005A6862B1116000221846C3E900222BF067
:101AD000F5FF054A1368103B136010BD7047216085
:101AE000F1E700BFA46B0020906B0020014B586809
:101AF000704700BFA46B0020034B5A68824202D09B
:101B00005860FFF78DB97047A46B0020014B9868AF
:101B1000704700BFA46B0020014B9860704700BF66
:101B2000A46B002029B131EA00030CBF0120002082
:101B300070470846704700BFF0B4044620B3134B0B
:101B400000255F682846D3F808C0A668D4E90032AB
:101B5000002A09DD1C68BC4208BF1846002C08BFDB
:101B60001D46013A0B44F5D15EB133681BB905E05F
:101B700056F8083F13B113EA0C0FF9D07468002C23
:101B8000E3D1002808BF2846F0BC7047A46B0020B2
:101B900070B5164E346810B30D460821FFF7CCFF20
:101BA000416854B1A3689942234603D10AE09A6878
:101BB0008A4207D01B68002BF9D12846BDE8704047
:101BC000FEF7AABED3E9001209B14A605A683AB1D9
:101BD00000201160C3E900406360D868336070BDC5
:101BE000C3E900120029F8D00C46F5E7A46B0020E9
:101BF00008B50821FFF7A0FF406808BD08B5082117
:101C0000FFF79AFF406808BD2DE9F04F8B4C8DB06F
:101C100080460D46E06804920893D8F800600028DA
:101C200000F0EF8041F6FC53C6F3080740F20112C2
:101C300042F6FA44C31808F104019742044406939B
:101C40004FEA5623059100F0BE804FF6FF720499CB
:101C50004FF4817E1726029242F6FB428B464FF0EC
:101C6000090C821882460B9240F2FF120392002266
:101C70000192089A521A0A92B7F5807F76D0BE4533
:101C800000F0B2803846A14601214FF00008B0F5BF
:101C9000817FC0F0B38008F1FF310793069B214498
:101CA00000E09046A0F5817008F1010280B213F8BF
:101CB000009001F8019F3AF81000B0F5817FF0D252
:101CC000079B08F1020104EB02090992BE4589F85D
:101CD000000003D1601810F8010C207002984FF634
:101CE000FF72904223D0069A04EB0109DFF8648169
:101CF00002EB0E00BDF80820F044A0F581702AF830
:101D000018200EF1010819F8012C88EA0E0902705A
:101D1000CE450ADABCF10B0F07DC039A0CF1010C7B
:101D2000500040F0010082B203921FFA88FE049A2C
:101D3000CCF12000002A49D0089A002A46D021443C
:101D4000DDF828906A1C8C420ED011F8018DBBF191
:101D5000010B85F8008002D14A44DDF810B0154629
:101D60008C4205F10102F0D102970AE04FF6FF72B2
:101D700017204FF4817E4FF0090C029240F2FF12BF
:101D80000392102E0BDC0599C6F120070A68043176
:101D9000059102FA06F1FA4020360B430192039AAC
:101DA000A6EB0C06019902EA030740F2011201FAC0
:101DB00000F023FA0CF321FA0CF1974243EA0003F6
:101DC00001917FF459AF0DB0BDE8F08F099A05F18C
:101DD000FF380132A11811F8019DA14208F8019FB6
:101DE000F9D115440297CCE702980221DDF82C9036
:101DF0004FF00108B0F5817FBFF44DAFCDF82480DE
:101E000064E743F6FA402BF04FFEE06030B10C4936
:101E100043F6FA430A6813440B6003E74FF4117268
:101E2000084909482BF054FE08482BF051FE084899
:101E30002BF04EFE2BF05EFEE068E8E7A46B00207E
:101E4000906B002044480608F4450608584A0608E6
:101E5000B4330608FEFEFF7F704700BF704700BF27
:101E600010B5064CE06840B12BF028FE044A054B43
:101E700000201168E0600B44136010BDA46B0020CB
:101E8000906B002006C3FFFF29B131EA00030CBFAD
:101E90000120002070470846704700BF08B50821A0
:101EA000FFF74AFE90F9040008BD00BF08B50821FD
:101EB000FFF742FEB0F9040008BD00BF08B50821D5
:101EC000FFF73AFE406808BD08B50821FFF734FE69
:101ED000007908BD08B50821FFF72EFE808808BDEF
:101EE00008B50821FFF728FE406808BD08B508219D
:101EF000FFF722FE007908BD08B50821FFF71CFE98
:101F000090ED010A08BD00BF08B50821FFF714FED7
:101F1000406808BD08B50821FFF70EFE406808BDFF
:101F20002DE9F04107460D460026DFF840800368A2
:101F30001846C3B1DA68002AF9D0D468AC42F6D0AA
:101F40005B68DB68AB42F2D1D8F80030104601364E
:101F50009C4203D01168D360CB6998473846036828
:101F60001846002BE6D13046BDE8F0816C6B0020AE
:101F700070B504460E460D4D236818469BB15A684D
:101F8000D268B24204D1DA6872B1D26896420BD0FC
:101F90002A681B68183A2A6023602BF08FFD23689B
:101FA0001846002BEBD170BD1C46E5E7746B002092
:101FB00070B504460E460D4D236818469BB15A680D
:101FC000D268B24204D1DA6872B1D26896420BD0BC
:101FD0002A681B68143A2A6023602BF06FFD23687F
:101FE0001846002BEBD170BD1C46E5E7746B002052
:101FF000F0B583B0046805461E466F4687E80600C4
:10200000ECB11146009802E025462468BCB1A268F4
:102010008A42F9D162688242F6D1236923BB2268E1
:102020002A602360296809B904E011460A68002A79
:10203000FBD10D4601202C60E66003B0F0BD1420FA
:102040002BF032FD044690B1DFF850C00021231D73
:10205000DCF8002021612160143297E80300CCF8FD
:10206000002083E80300DDE7002003B0F0BD9922E3
:10207000064907482BF02CFD06482BF029FD0648A1
:102080002BF026FD2BF036FDDEE700BF804806086A
:10209000F44506088C480608B4330608746B002023
:1020A00070B50A4D0446281F21460646FFF738FF43
:1020B00003E03046FFF734FF30B121462846FFF7F2
:1020C0002FFF21460028F4D170BD00BFB86B00205F
:1020D00038B50F4C23685BB10E4D2A6818461B6853
:1020E000143A23602A602BF0E9FC2368002BF4D11A
:1020F00063685BB1074D2A6818461B68143A636031
:102100002A602BF0DBFC6368002BF4D138BD00BFE4
:10211000B46B0020746B002038B5094C05460146AD
:1021200004F10800FFF724FF294604F10C00FFF733
:102130001FFF294604F11000BDE8384018E700BF32
:10214000B46B002038B5054C054601462046FFF724
:102150002FFF2946201DBDE8384029E7B46B002039
:10216000C0E90012704700BFA1B1F8B50D460646A0
:102170000024094F56F83430013418463BB13A6810
:10218000D968914203D01968DA60CB699847A542B3
:10219000F0D1F8BD704700BF6C6B002010B485B063
:1021A0006C460DF1100C84E80C000CE90300009B58
:1021B000029A9A4204D0012005B05DF8044B7047A2
:1021C0000398019BC01A18BF012005B05DF8044BAD
:1021D000704700BF82B002AB03E90300009818B15A
:1021E0001146019B02B0184702B0704710B582B08B
:1021F0006C4684E8030030B113460B4894E80600AF
:10220000FFF7F6FE08B102B010BD4FF4FE720749A9
:1022100007482BF05DFC07482BF05AFC064802B03B
:10222000BDE810402BF054BCB46B00208048060879
:10223000F0300608B4480608B433060810B483B07A
:102240006C4684E8030038B11346054894E806005C
:1022500003B05DF8044BCBE603B05DF8044B704768
:10226000B86B00202DE9F041114D2C68002C14BFF3
:102270004FF001084FF0000812D00E4E01276068A1
:102280002761D4E9023198472A68336820461268EA
:10229000143B2A6033602BF011FC2C68002CEED12B
:1022A0006A6800234046C5E90023BDE8F08100BF0D
:1022B000B46B0020746B0020044B1A680AB1012033
:1022C00070475868003018BF01207047B46B002079
:1022D0002DE9F04383B06D4685E80300C8B1C2B173
:1022E000254FF968C9B10446019E01E00968A1B112
:1022F0004868A042FAD18868B042F7D1C8689042D5
:10230000F4D1D1F810C0BCF1000FEFD14869984268
:10231000ECD1002003B0BDE8F08318201E469046A3
:102320002BF0C2FB0446B8B1144B04F1040E4FF07D
:1023300000091A6895E8030018328EE80300F9686E
:102340000120C4F80C8021606661C4F810901A6006
:10235000FC6003B0BDE8F08340F28E2208490948D2
:102360002BF0B6FB08482BF0B3FB08482BF0B0FB72
:102370002BF0C0FBD8E700BFB46B0020746B0020CB
:1023800080480608F4450608EC480608B4330608F9
:1023900082B02DE9F04383B06D4685E80300014625
:1023A0000AA880E80C00D9B11446CAB1DFF8B09091
:1023B0000B9ED9F81030CBB1019801E01B68ABB18E
:1023C0005A688A42FAD19A688242F7D1DA68A24200
:1023D000F4D11A69B242F1D15F690D9A9742EDD1F9
:1023E000002003B0BDE8F04302B0704718202BF086
:1023F0005BFB8046D0B1154A08F1040E95E8030056
:1024000013688EE803000D9918330120C8F81410E2
:10241000D9F81010C8E90346C8F800101360C9F8CD
:10242000108003B0BDE8F04302B0704740F2DB22F9
:10243000074908482BF04CFB07482BF049FB07489D
:102440002BF046FB2BF056FBD5E700BF746B00204A
:1024500080480608F4450608EC480608B433060828
:10246000B46B00202DE9F04182B06D4685E8030091
:10247000B0B1234EB368B3B10C4601E01B6893B111
:1024800059688142FAD19968A142F7D1D9680029E7
:10249000F4D119690029F1D15F699742EED108465C
:1024A00002B0BDE8F081182017462BF0FDFA044673
:1024B000B8B1DFF860E004F104080023DEF8002082
:1024C00095E80300183288E80300B16801206761CD
:1024D0002160E360CEF80020B460236102B0BDE863
:1024E000F0814FF44972074907482BF0F1FA074889
:1024F0002BF0EEFA06482BF0EBFA2BF0FBFAD8E7BC
:10250000B46B002080480608F4450608EC4806082D
:10251000B4330608746B002070B582B002AC04E9D5
:102520000300009D22B31DB3134CE16801B30C34CA
:10253000019E02E00C460968D1B14868A842F9D171
:102540008868B042F6D1C8689042F3D10869002883
:10255000F0D148699842EDD1084A084609681368E5
:102560002160183B13602BF0A9FA012002B070BD66
:10257000002002B070BD00BFB46B0020746B00205F
:1025800082B0F0B583B002AC04E9030008A900985A
:1025900081E80C004AB340B3174C23692BB31034C5
:1025A000019D099E02E01C461B68F3B159688142F7
:1025B000F9D19968A942F6D1D9689142F3D1196944
:1025C000B142F0D159690B9FB942ECD10B4A184680
:1025D000196813682160183B13602BF06FFA012013
:1025E00003B0BDE8F04002B07047002003B0BDE882
:1025F000F04002B0704700BFB46B0020746B002045
:1026000030B583B002AB03E90300009808B3134C64
:10261000A36803B30834019D02E01C461B68D3B1D4
:1026200059688142F9D19968A942F6D1D96800293F
:10263000F3D119690029F0D159699142EDD1084AC5
:102640001846196813682160183B13602BF036FA9E
:10265000012003B030BD184603B030BDB46B00207C
:10266000746B0020C0B10D4B70B5DC6805460E469A
:1026700014B910E0246874B1E368AB42FAD122695E
:10268000002AF7D16369B342F4D1231D93E8030014
:10269000FFF7ACFDEEE770BD704700BFB46B0020E4
:1026A00030B585B004AC04E90700019DBDB10D4A09
:1026B000146914B913E024688CB1E268AA42FAD113
:1026C0002169029A9142F6D162699A42F3D1211DA1
:1026D0000022009303C9FFF789FD009BEBE705B0DB
:1026E00030BD00BFB46B002038B50C4B9C68A4B162
:1026F000054601E0246884B1E368002BFAD1226921
:10270000002AF7D16369AB42F4D1231D93E803009B
:10271000FFF76CFD2468002CEED138BDB46B0020AF
:1027200000282BDDF8B544000E3420462BF0BCF910
:102730000546A0B1124844F2776712490368124E69
:102740001A190B686C60013334682F8100272C60E4
:102750006F81026005F10C0035600B60F8BD40F23E
:1027600077220A490A482BF0B3F90A482BF0B0F94E
:1027700009482BF0ADF92BF0BDF9DBE700207047DD
:102780008C6B00209C6B0020C86B0020144906084D
:10279000F445060820490608B433060803880246B3
:1027A00033B130F8023F002BFBD1801A4010704744
:1027B0001846704772B15200831E30B48D1831F83C
:1027C000024BA94223F8024FF9D11044002330BC38
:1027D0000380704700230380704700BF70B5044634
:1027E0000A460E480E492BF073F923887BB10D4E33
:1027F0000D4DA3F12002194628465F2A84BF1946D1
:1028000030462BF065F934F8023F002BF1D1074830
:102810002BF05EF9BDE870402BF06CB94849060812
:1028200014490608C4440608C0440608704906084E
:102830002DE9F8433C4BDFF8F4901F461E46DFF8C5
:10284000F080D3E9005435B16B892A6833B32E4642
:102850001546002DF8D1D7F808E0DFF8D080DFF872
:10286000D090CCB1BEF5004F16DDA38A04F1100C58
:102870006668208A002B4DD100284DD06346024661
:1028800000E0E2B103EB420399881A880029F8D0EE
:10289000AAB13446002CE5D1BDE8F883D9F8001080
:1028A0002846D8F800306D68013B3260491BC8F8F3
:1028B0000030C9F800102BF001F93568C3E7D8F8EB
:1028C00000300021A2689B1AC8F800300CEB400CC5
:1028D0000131BCF800000028F8D1D9F80030206898
:1028E0005B1AC9F8003078B14660636883B118603C
:1028F000AEEB02022046C4E90055BA6034462BF024
:10290000DDF8D7F808E0C5E733467E60002BEED14E
:10291000F860EDE70028BCD1D8F800300021A268AB
:102920009B1AC8F80030D8E7C86B00208C6B0020D9
:102930009C6B002078B170B50446FFF72FFF054669
:10294000FFF7EEFE064620B11DB12A462146FFF7ED
:1029500031FF304670BDE3E670B504460078B0B193
:10296000254615F8013F002BFBD12E1B3046FFF703
:10297000D7FE58B18EB1034614F8012BAC4223F8B0
:10298000022BF9D100EB46060023338070BDFFF720
:10299000C7FE06460028F7D170BD0646F4E700BF23
:1029A0002DE9F8430E1E40F3838003460546324668
:1029B00000241978080608D4013A0133002A04F1EA
:1029C000010408DD19780806F6D5DF2968D8023A2F
:1029D0000233002AF2DA2046FFF7A2FE00286BD06D
:1029E000002C4FEA440C22DD01464FF6FF7708E049
:1029F0000135013E013C21F8023B002C17DD002E81
:102A000015DD2B787F2BF3D9DF2B15D8012E13DDA5
:102A10006A789B01013C023E03F4F86302F03F0236
:102A2000002C05F10205134421F8023BE7DC0023EA
:102A300020F80C30BDE8F883EF2B12D8022E10DD01
:102A400095F802E01B0395F80180033E9AB20EF060
:102A50003F034FEA881E033513440EF47C6213448F
:102A6000C8E7032EE3DD95F801E09B0495F80280AA
:102A7000043E4FEA0E3E95F803904FEA881803F49F
:102A8000E01209F03F090EF47C3308F47C6E043543
:102A90001A430EEB09031344BB4228BF3B46A9E788
:102AA000EF2902D8033A033393E7043A043390E75B
:102AB0000020FFF735FE08B90020BBE74FF0000CFF
:102AC000B5E700BF70B500238AB0022A8DF8253023
:102AD0000DF1250433D0082A3AD0102A43D0304DC6
:102AE000A5FB0032D20802EB8203A0EB43031046A1
:102AF000303304F8013D002AF2D10DF1260080297F
:102B0000A0EB04002DDC00293CDD461E8E1B26EACE
:102B1000E67528440138FFF703FE002E3DDD2A4606
:102B200003463021013A23F8021B002AFADC14F88C
:102B3000012B23F8022B002AF9D10AB070BD00F056
:102B40000103400803F1300304F8013DF7D1D4E755
:102B500000F00703C00803F1300304F8013DF7D18A
:102B6000CBE78021D1E700F00F03013CDAB2092B5B
:102B700002F1570302F130028CBF2370227000096A
:102B8000F1D1BAE70138FFF7CBFD14F8012B03466A
:102B900023F8022B002ACAD1CFE70346C7E700BFBC
:102BA000CDCCCCCC70B580EAE0738AB00024022A88
:102BB000A3EBE0738DF825400DF125043BD0082AE6
:102BC00042D0102A58D0344EA6FB0325ED0805EB61
:102BD0008502A3EB42022B46303204F8012D002D72
:102BE000F2D180290E460DF12603A8BF80260029C8
:102BF000A3EB0403D4BF0021012100282DDA61B327
:102C0000F61A26EAE6752B441846FFF789FD2D22B1
:102C1000831C0280002E06DD2A463021013A23F86B
:102C2000021B002AFADC14F8012B23F8022B002ADD
:102C3000F9D10AB070BD03F001025B0802F1300265
:102C400004F8012DF7D1CCE703F00702DB0802F10D
:102C5000300204F8012DF7D1C3E7002802DB09B1E7
:102C60005A1EB61A26EAE67500282B44CCDB581EFD
:102C7000FFF756FD0346CDE703F00F02013CD5B246
:102C8000092A05F1570205F130058CBF2270257025
:102C90001B09F1D1A5E700BFCDCCCCCC2028A8BF23
:102CA00020202029A8BF202130B505460C468FB032
:102CB00010EE100A25EAE57524EAE47415F06EFDBD
:102CC000064A2B460094CDE9020105A822212AF0EC
:102CD00019FF05A8FFF740FE0FB030BD7449060884
:102CE00038B5054608460C46FFF71AFD48B14CB109
:102CF00000EB4401034623F8025B9942FBD100221A
:102D00001A8038BD034600221A80FAE7A8B103886A
:102D100079B10A88934206D16BB130F8023F31F89D
:102D2000022F9342F8D09B1A0ED4181C18BF012012
:102D30007047002BF9D11846704719B10A8832B98B
:102D400010467047084670474FF0FF307047034603
:102D5000E9E700BF2DE9F843056829684B1C64D0FA
:102D6000404E0746F26852B1D36814469D4203D1E3
:102D70003FE0E3689D423CD02468002CF9D101F18A
:102D8000100840462AF090FE044600285AD0002140
:102D900004F11009281DE5600B460A4621606160B8
:102DA0004946C4F80880FEF72FFF296848460029E5
:102DB000B8BF01314910FFF74FF82B4A238A116839
:102DC00041441160002B3BD0002209EB4309013242
:102DD000B9F80030002BF8D12448A36801680A44F0
:102DE000B16802600020F268C4E900209AB97460FA
:102DF00012E0D4E90013E9B14B606368EBB11960EC
:102E00000020A368B168C4E900000020C91AC4E921
:102E10000020002AEBD05460B8880B44F46004EB27
:102E20004000B3601030BDE8F883808805EB4000B7
:102E3000BDE8F8837360002BE1D10A46F160DFE75B
:102E40001A46C9E740F2472209490A482AF040FEDB
:102E500009482AF03DFE09482AF03AFE2AF04AFEC7
:102E600095E700BFC86B00208C6B00209C6B002096
:102E700014490608F445060820490608B433060834
:102E800028B130F8042C44F277639A4200D070479E
:102E900044F2575320F8043C704700BF70B50568F2
:102EA0008D4231D00C46064671B131F8043C44F2F3
:102EB0007762934235D044F25752934204D040F2A5
:102EC00015512046FFF78AFC7DB135F8042C44F2F9
:102ED00057539A4219D135F8023C4FF6FF7293428C
:102EE00003D01BB3013B25F8023C64B134F8023C2B
:102EF0004FF6FF72934206D04FF6EF72934224D8FA
:102F0000013324F8023C346070BD40F2175128466A
:102F1000FFF764FC35F8023C4FF6FF729342E0D1B4
:102F2000E3E744F2575321F8043CCDE740F2235243
:102F30000E490F482AF0CCFD0E482AF0C9FD0E4874
:102F40002AF0C6FD2AF0D6FDCFE740F22F520749FE
:102F500007482AF0BDFD09482AF0BAFD06482AF0C4
:102F6000B7FD2AF0C7FD3460CEE700BF144906085C
:102F7000F44506087C490608B4330608B04906083B
:102F800038B5056895B135F8042C44F2575304461A
:102F90009A420CD135F8023C4FF6FF72934203D0AF
:102FA0008BB1013B25F8023C0023236038BD4FF470
:102FB000AC612846FFF712FC35F8023C4FF6FF7271
:102FC0009342EDD1F0E740F26D52074907482AF0ED
:102FD0007FFD07482AF07CFD06482AF079FD2AF09B
:102FE00089FD00232360E1E714490608F44506083B
:102FF0007C490608B433060800293AD02DE9F84385
:103000004E1E051FDFF87490DFF87480194F06E03C
:1030100024F8022C00232B6016F1FF3627D355F835
:10302000044F44F25753002CF6D034F8042C40F2ED
:10303000935120469A4201D0FFF7D0FB34F8023C6E
:103040004FF6FF72934203F1FF32E3D0002BDFD142
:103050004FF4B462494640462AF03AFD38462AF019
:1030600037FD05482AF034FD2AF044FDD2E7BDE8DB
:10307000F88370477C490608B433060814490608EB
:10308000F44506082DE9F843284E7468DCB1284F52
:103090004FF00009DFF89C80A38A04F1100C6568EA
:1030A000208A002B39D1002839D06346024600E03F
:1030B0005AB103EB420399881A880029F8D022B14B
:1030C0002C46002DE8D1BDE8F8833B680021A268BA
:1030D0009B1A3B600CEB400C0131BCF8000000284F
:1030E000F8D1D8F8003020685B1AC8F8003070B109
:1030F000456063687BB11860B3682046C4F80090EF
:103100009B1AC4F80490B3602AF0D8FCD8E72B4689
:103110007560002BEFD1F060EEE70028D0D13B685E
:103120000021A2689B1A3B60DBE700BFC86B002050
:103130008C6B00209C6B00202DE9F0410C46F0B117
:103140000746FFF72BFB064691B10846FFF726FB23
:103150008046E6B120B33044FFF7E2FA0546D0B925
:1031600015EB460008D042462146FFF723FB03E05B
:10317000002814BF3D4600252846BDE8F08131B146
:103180000D460846FFF70AFB2846BDE8F0812546B4
:103190002846BDE8F08139463246FFF70BFBDFE7F2
:1031A0003D46E9E72DE9F8430D46044630B1FFF707
:1031B000F5FA064691B92046BDE8F8830029FAD011
:1031C00001204FF00208FFF7ABFA00270446002366
:1031D000E553204624F80830BDE8F8834700013065
:1031E000FFF79EFA814607F1020800B10EB94C467E
:1031F000EDE721463246FFF7DDFA4C46E7E700BF30
:1032000070B505460C4631B10846FFF7C7FA0646C9
:1032100025B9204670BD0E46002DFAD0701CFFF770
:103220007FFA002203460580964218BF944220F898
:10323000022F00D010B91C46204670BD21463246F0
:103240001C46FFF7B7FAE4E710B5044608B1FFF7EC
:10325000A5FA002904DB814202DA34F8110010BD1E
:10326000002010BD70B50D461646044608B1FFF7A4
:1032700095FA002D13DB854211DA34F8022C4FF653
:10328000FF739A421FD034F8042C44F2776320462F
:103290009A4201D0FFF74EFB20F8156070BD40F256
:1032A000A162104910482AF013FC10482AF010FCC3
:1032B0000F482AF00DFC2AF01DFC34F8022C4FF6C2
:1032C000FF739A42DFD140F2A562064906482AF010
:1032D000FFFB08482AF0FCFB05482AF0F9FB2AF01E
:1032E00009FCD0E714490608F4450608E449060835
:1032F000B4330608104A060808B1FFF74FBA704702
:1033000070B5B8B10646FFF749FA0546FFF708FA67
:103310000446A0B1B5B9238853B12246A3F1610197
:10332000203B192998BF138032F8023F002BF5D1BA
:10333000204670BDFFF7F4F904460028EBD10024C5
:10334000204670BD2A463146FFF734FAE3E700BF56
:1033500070B5B8B10646FFF721FA0546FFF7E0F968
:103360000446A0B1B5B9238853B12246A3F1410167
:103370002033192998BF138032F8023F002BF5D172
:10338000204670BDFFF7CCF904460028EBD100249D
:10339000204670BD2A463146FFF70CFAE3E700BF2E
:1033A00070B50C460546B0B1FFF7F8F988420DDB61
:1033B00084420BD09CB12046FFF7B2F906463DB1DE
:1033C00030B1294635462246FFF7F4F9284670BD4C
:1033D0003546284670BD0029EADD284670BD2546E1
:1033E000F4E700BFF8B50D460446C8B1FFF7D6F9BB
:1033F000884206460FDBB5420DD0ADB1761B28469C
:10340000FFF78EF9074614EB460106D028B13C467B
:103410002A46FFF7CFF92046F8BD3C462046F8BDC6
:103420000029F8DC0646E6E72C46F4E7F8B50C463A
:1034300015460646C0B1FFF7B1F900291FDB8442EB
:1034400021DA6319834213DC854214D02DB3284658
:10345000FFF766F9074616EB440103D010B12A4680
:10346000FFF7A8F93846F8BD002907DB12D030462F
:10347000051B8542EAD137463846F8BD304625441B
:1034800000248442DDDBF3DC00280CBF3746002734
:103490003846F8BD0F463846F8BD2F46E2E700BF74
:1034A0002DE9F04F0C4683B0002843D090460646E5
:1034B000FFF774F98346002937D00846FFF76EF905
:1034C000824690B3BBF1000F40D028EAE87100EBD0
:1034D0000B078B4550DD4FEA410938460091FFF755
:1034E0001FF916EB0903009905460CBF01200020C7
:1034F00001EB0A07ABEB01028B4508BF40F001006E
:10350000B8F1000F00924FEA470724DD1DB3EF1911
:103510008B4614BF80464FF001085A463146284674
:103520000193FFF747F9019B1AE03546284603B09F
:10353000BDE8F08F51B10846FFF730F9002814BFFD
:103540000D460025284603B0BDE8F08F25462846E5
:1035500003B0BDE8F08FEF1914BF80464FF00108AB
:1035600015EB090018D1B8F1000FDFD1009A194608
:103570003846FFF71FF9D9E74FEA4B093846FFF7FE
:10358000CFF805467F0006EB090378B948460028C6
:10359000CCD04FF001080095524621460193FFF729
:1035A00009F9019BB8F1000FC0D1DFE700222F44D9
:1035B0004FF001080092B0E72DE9F0410C461546A6
:1035C000074668B3FFF7EAF80646002C04EB05034C
:1035D00001DA1D4600249E42B8BF351B002D21DDB7
:1035E000B5422DD0701BFFF79BF8002C18BF002FA1
:1035F000804600D0F8B92919361B08EB440017EBB8
:103600004101A6EB05020CBF01230023AE4214BF0B
:103610001E4643F0010606B940B94046BDE8F081B8
:103620000646D2E7B8464046BDE8F081FFF7C2F84B
:103630004046BDE8F08122463946FFF7BBF8DAE79D
:103640004FF00008E9E700BF70B51546064608B11F
:10365000FFF7A4F8002D11DBA8420FDD16EB4500A3
:103660000CD036F815304BB199420ED0044601E02B
:10367000994206D034F8023F002BF9D14FF0FF30C9
:1036800070BD241A05EB640070BD284670BD00BFF4
:10369000F8B51746044608B1FFF780F8002F1EDB87
:1036A000B8421CDD7B00DC4204EB030C1AD0C9B12C
:1036B0000888D0B1E35A93B1624698420BD10D46C7
:1036C000144601E0B34205D134F8023F35F8026FE9
:1036D000002BF7D15EB132F8023F002BEDD14FF055
:1036E000FF30F8BDBCF1000FF9D03846F8BDA2EBB1
:1036F0000C0207EB62073846F8E700BF002877D0D6
:10370000F0B40488A4F10903042B01D9202C0AD1B8
:10371000831C184693B333F8024BA4F10905042D1A
:10372000F7D9202CF5D02B2C30D02D2C2ED00125E4
:10373000102A26D83D4BD340DB0722D5102A2ED0A5
:103740002F2C1BD902F12F039C4217DCA4F130036C
:103750009EB2092E04D924F02006413E052E0DD834
:10376000022A47D1002130F8024F03EB4101A4F1B6
:1037700030039AB2012AF6D905FB01F10846F0BCE4
:1037800070472F2C4FF00A02DCD8F7E7831C2D2C52
:10379000408804461846CAD14FF0FF35C8E7A4F167
:1037A00030039AB2092A04D924F02002413A052AAA
:1037B000E4D80021A4F161020E01A4F15701A4F1A3
:1037C0004107052A314406D9052FA4F1370403EB3C
:1037D000060198BFA11930F8024FA4F1300324F07C
:1037E00020029EB2413A092EE4D9052AE2D9C3E764
:1037F00008467047082A0AD1002130F8024F03EB2F
:10380000C101A4F130039AB2072AF6D9B4E70A2A13
:10381000CFD1002101EB810130F8024F03EB4101D0
:10382000A4F130039AB2092AF4D9A5E704010100F2
:10383000002878D030B40488A4F10903042B01D9FE
:10384000202C0AD1831C184693B333F8024BA4F101
:103850000905042DF7D9202CF5D02B2C30D02D2C98
:103860002ED00125102A26D83E4BD340DB0722D587
:10387000102A2ED02F2C1BD902F12F039C4217DCCB
:10388000A4F13003092B04D924F02003413B052B7C
:103890000ED8022A49D1002104EB410130F8024F31
:1038A000A4F130033039012BF6D9013500D149425A
:1038B000084630BC70472F2C4FF00A02DCD8F7E7DF
:1038C000831C2D2C408804461846CAD14FF0FF3582
:1038D000C8E7A4F13003092B04D924F02003413BAD
:1038E000052BE5D80021A4F161030901A4F14102EF
:1038F000052B01EB04030ED8A3F1570130F8024F5A
:10390000A4F1300224F02003092AA3F14103EAD9EB
:10391000052BE8D9C9E70B19052AA3F1300198BF97
:10392000A3F13701EAE708467047082A0AD10021C7
:1039300004EBC10130F8024FA4F130033039072BFA
:10394000F6D9B2E70A2ACDD1002101EB810104EBBF
:10395000410130F8024FA4F130033039092BF4D97A
:10396000A3E700BF0401010038B52DED028BB0EED6
:10397000408A00285DD00288A2F10903042B01D9F6
:10398000202A0BD1831C1846002B52D033F8022B6F
:10399000A2F109010429F6D9202AF4D02B2A57D004
:1039A0002D2A55D00124A2F1300399B2092945D816
:1039B000B2EE047A9FED418A07EE903A30F8022F7A
:1039C000F8EEE77AA2F1300399B2E8EE077A092916
:1039D000B0EE678AF0D92E2A4ED022F0200292B2A1
:1039E000452A24D141882B2942D02D2960D0851C1D
:1039F0000120A1F1300293B2092B18D8002335F829
:103A0000021F03EB830302EB4303A1F1300291B2E7
:103A10000929F4D900FB03F34BB107EE903AB2EE5B
:103A2000040AF8EEE70A2AF0B9F828EE008A013411
:103A300017D0B0EE480ABDEC028B38BD2E2AF8D163
:103A40004388303B092BF4D803469FED1C8A14E0D1
:103A50004188831C2D2A18460A46A3D14FF0FF3413
:103A6000A1E7B1EE488AB0EE480ABDEC028B38BD42
:103A7000051D81880120BCE703465A880230A2F167
:103A8000300399B20929A8D8DFED0D7AF0EE676A04
:103A900030F8022F07EE103AA2F13003B8EEC77AE1
:103AA00099B2A7EE278A092967EEA67AF0D994E79A
:103AB000051D81884FF0FF309BE700BF000000002C
:103AC000CDCCCC3D002A1CDD30B4C0B1013A16D0BB
:103AD00005880C461DB90CE030F8025F4DB1FF2D92
:103AE00004F101048CBF04F8013C04F8015C013AC4
:103AF000F2D1002304F8013B601A30BC70470C4639
:103B0000F7E70020704700BF08B50C21FEF714F856
:103B10000430BDE80840FFF71DB900BF08B5082113
:103B2000FEF70AF8808808BDA0F16103192B01D8BF
:103B3000203880B2704700BFA0F14103192B01D893
:103B4000203080B2704700BF10B5044629F0E8FF6E
:103B5000064B1A68824202D95A6801325A601860CC
:103B600093E8030084E80300204610BDD86B0020D2
:103B7000F8B5074620200E4629F096FF044688B186
:103B80000F4D00230F492A68886820326760206043
:103B90002046A66023732A608C60C4E90433C4E91C
:103BA0000633F8BD87220849084829F091FF0848E4
:103BB00029F08EFF074829F08BFF29F09BFFDFE7F4
:103BC000746B0020D86B0020344A0608F4450608C0
:103BD000404A0608B433060810B51C4B0446017B66
:103BE0009A6839BBA2422DD04AB113689C4215D0C5
:103BF0002BB11A68A24212D01346002BF9D1C4226D
:103C00001349144829F064FF2146134829F060FF46
:103C1000124829F05DFF29F06DFF02E0134622688B
:103C20001A600F4A20461368203BBDE8104013601D
:103C300029F044BF0021A2420173C0E90611C0E986
:103C40000411D1D122689A60EBE700BFD86B002045
:103C5000344A0608F4450608684A0608B4330608DC
:103C6000746B002030B5037B85B004460D464BBB1A
:103C7000002D18DB002A12DBBDB1A56102A8E261AC
:103C8000FFF762FFDDE902311D44AB424FF0010353
:103C900088BF01312373C4E9045105B030BD002D44
:103CA000FBD00022E9E7002AF7DB002AF5D0A26169
:103CB00002A8E2610192FFF747FF019ADDE90231B4
:103CC000D518E2E700230373C0E90633C0E90433E3
:103CD000CEE700BF037B2BB100230373C0E906339B
:103CE000C0E90433704700BF284BF0B583B09C682F
:103CF0006846FFF729FF009E002C3ED000252F4686
:103D0000237B73B30199D4E90430B1EB000C0CBFF1
:103D1000F21A6246002A24DBE269002A27DDD31862
:103D20002FD2C4E90430BCF1000F01D1A6EB030C83
:103D3000BCF1000F11DBF31A93FBF2F002FB10331E
:103D4000F01A002BC8BF01F1FF31864288BF013154
:103D5000121828BF0131C4E90421D4E9013001352A
:103D600098472468002CCBD1284603B0F0BD2773B8
:103D7000C4E90677C4E90477EFE72546284603B08F
:103D8000F0BD0130A1EB000CCBE700BFD86B0020E9
:103D90000C4B10B582B09C686846FFF7D5FE009AC0
:103DA0006FF000405CB1237B23B123699B1A9842DA
:103DB000A8BF18462468002CF5D120EAE07002B0B4
:103DC00010BD00BFD86B002070B501FB00F40546A4
:103DD0000E46A40004F1140012F0C2FA68B1074ABA
:103DE000A900056000F114051368C16000211433B7
:103DF000466085601C440161146070BD906B0020BA
:103E000022B1136813B15368042B01D0002070470E
:103E10009368B3EB800FF9DB70B5044614201646A7
:103E20000D4612F09DFA58B1064A0121046013684C
:103E3000B46845601433356813600161C0E9025409
:103E400070BD00BF906B0020B8B1036910B40C4C7A
:103E5000216833B11423CB1A23605DF8044B12F0B0
:103E600081BAD0E9003202FB03F305339B00CB1A81
:103E700023605DF8044B12F075BA12F073BA00BFFC
:103E8000906B0020F0B4DDE904430CB104698CB9F7
:103E9000890000240427D0E9025601205F6002FB5C
:103EA00006129E602A44DC609C611A60C3E90444E7
:103EB000F0BC70470020F0BC704700BF01FB00F071
:103EC00080007047F8B501FB00F405460E4664001B
:103ED00004F1100012F044FA58B1064A6F0000F1E4
:103EE000100105601368C76010331C44C0E901610C
:103EF0001460F8BD906B002048B10649D0E900235A
:103F000003FB02F30A680833A2EB43030B6012F0D1
:103F100029BA00BF906B0020F0B44900059B002433
:103F20000227D0E9025601205F6002FB06129E6064
:103F30001544DC609C611D60C3E90444F0BC70471B
:103F400001FB00F04000704740EA024040EA036095
:103F500040EA0120704700BF42EA036343EA0123BD
:103F600043EA0040704700BF70B41C681D69240913
:103F70001E6A2D0B1B6B04F47F04C6F3075605F471
:103F80007F451B012C4303F07F4385683443006861
:103F900005FB02F21C4300EB81018C5070BC7047A2
:103FA000F0B51C6889001D69876824092D0B066817
:103FB00004F47F04186B07FB021205F47F45196AAD
:103FC00000012C43C1F3075300F07F402343034318
:103FD000190EFF2904D0B4585FEA146C02D109B15C
:103FE000B350F0BD0029FCD04F1C04F0FF1E03F0BD
:103FF000FF10C4F30724C7F58075C3F307230CFB38
:1040000005552D0A05FB0EFC294405FB04F407FBAE
:1040100000C0FE2907FB03434FEA10204FEA132399
:1040200000F0FF100CD80A4C03F0FF1334F81140D5
:1040300000FB04F004FB03F3000A1B0A00F0FF106E
:104040001B0240EA016103F0FF230B43B350C8E7B2
:10405000080B0608F0B415690029046810684FEAD7
:104060001536176A4FEA1010156B06F47F42C7F336
:10407000075600F47F004FEA051542EA000205F0FA
:104080007F4042EA060242EA000205DD4B1E013B88
:1040900044F8042B591CFAD1F0BC70472DE9F047C5
:1040A0001368002915694FEA1313176A4FEA15368A
:1040B000156B03F47F03006806F47F424FEA051591
:1040C000C7F3075642EA030205F07F4342EA0602BD
:1040D00042EA030253DD150E02F0FF17C2F3072672
:1040E00001F1FF3405F10103DFF8988014BF4FF0B0
:1040F000010E4FF0000EC3F5807C03FB07F703FBB6
:1041000006F607E0BEF1000F09D00260013C043062
:10411000631C34D0FF2DF8D00368190EF2D003F0E1
:10412000FF1A01FB0CC1C3F30723002DEED04FEAA9
:10413000112909FB0A7105EB090A09FB0363090A46
:10414000BAF1FE0F4FEA132301F0FF1103F0FF193C
:1041500009D838F81A3001FB03F103FB09F3090A07
:104160001B0A01F0FF111B02013C41EA0A61043005
:1041700003F0FF231943631C40F8041CCAD1BDE8B7
:10418000F08700BF080B06080029136BD2F804C0A3
:104190002DE9F04714681569166AD2F814E0D2F8D0
:1041A00024800768526B1CDD481E11011A01230987
:1041B00002F07F4A4FEA1539013803F47F03644463
:1041C00009F47F4975440A4443EA0903C6F30759D1
:1041D000464443EA0A0343EA090347F8043B431C05
:1041E000E5D1BDE8F08700BF2DE9F04FD0F800C061
:1041F00085B050690029D2F800900090506AD2F83A
:1042000010A0D2F820B0136B56680190556B69DD91
:1042100001F1FF382D014FEA031E0FE03AB3CCF84D
:104220000030009B08F1FF38B1440CF1040C9A44B3
:10423000B8F1FF3F019BAE449B4453D04FEA1911A4
:104240000EF07F434FEA1A32CBF3075401F47F009C
:1042500002F47F4240EA020141EA030242EA040317
:104260001A0EFF2ADBD0DCF800100F0ED6D001F0BA
:10427000FF10541CC1F30721039003F0FF10C3F398
:1042800007230290C4F58070002ACAD007FB000003
:10429000039F000A00FB07F7024400FB01F00299AC
:1042A000FE2A04FB030004FB01774FEA10204FEACB
:1042B000172700F0FF1307F0FF170AD80B4931F852
:1042C000120007FB00F700FB03F03F0A000A07F0AB
:1042D000FF17000247EA026200F0FF200243CCF819
:1042E00000209EE705B0BDE8F08F00BF080B060870
:1042F000002A0068096802F1FF3307DD021F51F848
:10430000040B013B42F8040F581CF8D1704700BF62
:10431000002A00682DE9F0430D6847DD541E244E45
:1043200005E06AB10360013C0430631C3ED055F8DF
:10433000043B1A0EFF2AF5D001685FEA1169F0D03C
:1043400002F1010E01F0FF1803F0FF17C1F307217E
:10435000CEF5807CC3F30723002AE4D009FB0CCC04
:104360004FEA1C2C0CFB08F862440CFB01F10EFB1D
:104370000787FE2A0EFB03134FEA17274FEA132382
:1043800007F0FF1703F0FF1C09D836F8121007FBDF
:1043900001F701FB0CF33F0A1B0A07F0FF171B0292
:1043A00047EA026203F0FF231343BBE7BDE8F08353
:1043B000080B0608002A30B404681D6B086811DD7C
:1043C0002D15511E013550F8043B01391A0E23F00A
:1043D0007F4305FB02F2120A43EA026344F8043BFE
:1043E0004B1CF0D130BC7047002A00682DE9F04327
:1043F0001C6B0D6849DD2415511E254E013455F8FE
:10440000043B013903F0FF17C3F307221B0E03FB24
:10441000044336D0D0F800C01B0A0CF0FF19CCF3CF
:104420000728C3F5807E5FEA1C6C03FB07F703FBDC
:1044300002F20CFB0EEE06D04FEA1E2E0EFB0977A1
:1044400073440EFB08223F0A03F1FF3C120A07F0F7
:10445000FF1783B1BCF1FE0F02F0FF1E4FEA0C63A1
:1044600009D836F81C2007FB02F702FB0EF23F0AC0
:10447000120A07F0FF1712023B4302F0FF22134318
:1044800003604B1C00F10400B9D1BDE8F08300BF0C
:10449000080B0608002AF0B40C680568D3E90C176D
:1044A00011DD501E54F8043B0E15013839441A0E24
:1044B00023F07F4306FB0222120A43EA026345F817
:1044C000043B431CEED1F0BC704700BF002A0068DB
:1044D0002DE9F0470D68D3E90C464FDD511E284FFA
:1044E00055F8043B4FEA24580139344403F0FF1CCB
:1044F000C3F307221B0E03F101033BD008FB033378
:10450000D0F800E01B0A0EF0FF19CEF307285FEA8F
:104510001E6EC3F5807A03FB0CFC03FB02F20EFB5C
:104520000AAA06D04FEA1A2A0AFB09CC53440AFB0E
:1045300008224FEA1C2C03F1FF3E120A0CF0FF1C6C
:104540008BB1BEF1FE0F02F0FF184FEA0E630AD8DE
:1045500037F81E200CFB02FC02FB08F24FEA1C2C71
:10456000120A0CF0FF1C120243EA0C0302F0FF22B5
:10457000134303604B1C00F10400B1D1BDE8F08788
:10458000080B0608002A00680B6810B48C6908DD67
:104590001A4413F8011B54F82110934240F8041BED
:1045A000F7D15DF8044B7047002A2DE9F047046805
:1045B0000D688E694ADD2A44254F05E079B12360F4
:1045C000954204F1040441D015F8013B56F823301C
:1045D000190EFF29F3D020685FEA106AEED001F1CE
:1045E000010E00F0FF1903F0FF1CC0F30720CEF509
:1045F0008078C3F307230029E2D00AFB08884FEA3A
:10460000182808FB09F9414408FB00F00EFB0C9C3C
:10461000FE290EFB03034FEA1C2C4FEA13230CF078
:10462000FF1C03F0FF1E0AD837F811000CFB00FC3A
:1046300000FB0EF34FEA1C2C1B0A0CF0FF1C1B02A4
:104640004CEA016103F0FF230B43B8E7BDE8F087B4
:10465000080B0608002A70B404681D6B08688E6990
:1046600014DD2D150244013510F8013B56F82330B6
:1046700090424FEA136123F07F4305FB01F14FEABB
:10468000112143EA016344F8043BEDD170BC70474B
:10469000002A2DE9F04704681D6B08688E694DDD1E
:1046A0002D150244264F013510F8013B56F82330F2
:1046B00003F0FF1CC3F307211B0E03FB055339D086
:1046C000D4F800E01B0A0EF0FF1ACEF30729C3F559
:1046D00080785FEA1E6E03FB0CFC03FB01F10EFB0E
:1046E000088806D04FEA182808FB0ACC434408FB88
:1046F00009114FEA1C2C03F1FF3E090A0CF0FF1CC4
:104700008BB1BEF1FE0F01F0FF184FEA0E630AD81D
:1047100037F81E100CFB01FC01FB08F14FEA1C2CC2
:10472000090A0CF0FF1C090243EA0C0301F0FF2107
:104730000B432360824204F10404B5D1BDE8F08745
:10474000080B0608002AF0B405688F690868D3E9E9
:104750000C4C14DD024410F8013B2615644457F854
:10476000233090424FEA136123F07F4306FB01118F
:104770004FEA112143EA016345F8043BEBD1F0BC59
:10478000704700BF002A2DE9F04F05680C688F695B
:10479000D3E90C6C4EDD2244DFF89CE014F8013BB9
:1047A0004FEA2659664457F8233003F0FF10C3F34D
:1047B00007211B0E03F1010338D009FB0333D5F8A1
:1047C00000801B0A08F0FF1AC8F307295FEA18687F
:1047D000C3F5807B03FB00F003FB01F108FB0BBB7F
:1047E00006D04FEA1B2B0BFB0A005B440BFB0911A5
:1047F000000A03F1FF38090A00F0FF1083B1B8F195
:10480000FE0F01F0FF194FEA086309D83EF81810AF
:1048100000FB01F001FB09F1000A090A00F0FF109A
:104820000902034301F0FF210B432B60A24205F173
:104830000405B3D1BDE8F08F080B0608F0B41C687E
:10484000002A1D694FEA14141E6A4FEA15351B6BC6
:1048500004F47F04C6F3075605F47F454FEA0313BB
:10486000006845EA040503F07F43096845EA060548
:1048700045EA03051BDD0A442E0E25F07F4704E0C0
:1048800003608A4200F1040011D011F8013B002BB3
:10489000F6D003FB0664FF2B4FEA142409D047EA45
:1048A00004648A4200F1040040F8044CEDD1F0BCED
:1048B00070470560E5E700BF2DE9F04F1E69002A4B
:1048C0000C6883B019684FEA163605684FEA111173
:1048D000186A06F47F461B6B01F47F01C0F3075092
:1048E0004FEA031346EA010603F07F4346EA000657
:1048F00046EA030613DD370E2244C6F3072A06F004
:10490000FF1B07F1010914F8013B23B1FF2B09D16B
:10491000BB4207D12E60A24205F10405F3D103B0DA
:10492000BDE8F08F002FF6D003FB0993D5F800C047
:104930001B0A5FEA1C6803FB0AF103FB0BF0019101
:1049400010D0C3F5807E0CF0FF11CCF3072C08FBD0
:104950000EEE4FEA1E2E0EFB0100019973440EFB72
:104960000C110191000A019900F0FF104FEA112E7D
:10497000A3B103F1FF3CBCF1FE0F4FEA0C630DD86D
:104980000A4931F81CC00EF0FF1100FB0CF00CFBC3
:1049900001F1000A4FEA112E00F0FF104FEA0E213C
:1049A000034301F0FF210B432B60B4E7080B06081B
:1049B0002DE9F04FD0F800E083B05868002A0D6868
:1049C000009058691E681F69D3F820C0196BD3F88E
:1049D00024A001905B6B33DD4FEA031905EB02085D
:1049E0004FEA011B10E001FB0331090A42EA0161B1
:1049F000CEF80010009BA845D4440EF1040E1E44CE
:104A0000019BCB441F441BD0330915F8011B3A0B03
:104A10000BF07F44CCF3075003F47F0302F47F4292
:104A20000029E5D01A43FF2942EA040240EA0200C5
:104A30004FEA106320F07F42D5D1CEF80000D9E7CD
:104A400003B0BDE8F08F00BF2DE9F04FD0F800C0F3
:104A500087B00868002A59681D68019159691E6964
:104A60001F6A1C6BD3F824E002915B6B2CDD4FEACC
:104A7000031B00EB020A2401F14610F8012BCAB116
:104A80004FEA151804F07F414FEA163EC7F307536B
:104A900008F47F08FF2A0EF47F4E48EA0E0E4EEA15
:104AA000010E4EEA03034FEA136110D18A420ED180
:104AB000CCF80030019B50454F440CF1040C1D44D0
:104AC000029B5C441E44D8D107B0BDE8F08F00299A
:104AD000F0D001F1010E03F0FF11C3F30723DCF85E
:104AE000008002FB0EE2120A02FB03F302FB01F15B
:104AF00003935FEA1863049313D008F0FF13C2F521
:104B0000807EC8F307280593049B03FB0EEE059BEC
:104B10004FEA1E2E0EFB0311039B72440EFB08335B
:104B20000393090A039B01F0FF114FEA1328A2B176
:104B300002F1FF3EBEF1FE0F4FEA0E620DD80B4BA5
:104B400033F81EE008F0FF1301FB0EF10EFB03F338
:104B5000090A4FEA132801F0FF114FEA0823114315
:104B600003F0FF231943CCF80010A3E7080B060855
:104B7000002A2DE9F0430B9E8D68D1F8008004686F
:104B8000DDE9071EDDE909C716DD501EAD100A1369
:104B900001384FEA2339614406FB02F2734407FBF4
:104BA00009F912144FEA294905FB029258F822200C
:104BB00044F8042B421CEAD1BDE8F0832DE9F04F04
:104BC000006885B0002A019088680968DDF838A07F
:104BD00002914FEAA001039178DD02F1FF398A00CA
:104BE00002F1040B0F9819134FEA2A32039D034474
:104BF000119809F1FF3900FB01F11098B9F1FF3F5D
:104C0000824412984FEA213100FB02F2A1F108011F
:104C10004FEA22324FEA211001F00F01A2F10802FF
:104C2000C1F110064FEA221402F00F0205FB040442
:104C3000C2F1100C029802FB06F601FB0CFC00EB23
:104C4000840702FB01F2CCF5807550F824407968A6
:104C5000A5EB060504F0FF1E4FEA112001F0FF113D
:104C6000A5EB02054FEA14280CFB01F157F80B40A5
:104C700000F0FF105F4405FB0E1108F0FF1857F815
:104C8000047C0CFB00F04FEA142E04F0FF144FEAF2
:104C9000172C05FB080002FB04110EF0FF1E07F0A5
:104CA000FF170CF0FF1C02FB0E00019A06FB071118
:104CB00006FB0C004FEA112100F0FF2001F0FF116C
:104CC00040EA010042F8040B01928BD105B0BDE827
:104CD000F08F00BF2DE9F04F002A85B0D0F800E03A
:104CE000D1F800B08868DDE90E9668DD02F1FF3882
:104CF0004FEAA00A119F0CE00AB3CEF8001008F1A9
:104D0000FF38109A33440EF1040EB8F1FF3F91447E
:104D100055D04FEA29321298191300FB02F207FB13
:104D200001F1121409140AFB02125BF822100A0E98
:104D3000FF2AE2D0DEF800005FEA106CDCD0541CE1
:104D4000019400F0FF14C0F30720039401F0FF1456
:104D50000546501C0294C1F30721C0F58070002A5B
:104D6000CDD00CFB0000039C000A00FB04FC0244B5
:104D700000FB05F0FE2ADDE9015405FB010005FBFF
:104D800004CC4FEA10204FEA1C2C00F0FF110CF06D
:104D9000FF1C0BD80B4830F812000CFB00FC00FB8A
:104DA00001F04FEA1C2C000A0CF0FF1C00024CEA38
:104DB000026200F0FF200243CEF800209FE705B01A
:104DC000BDE8F08F080B06082DE9F04FD0F80090F1
:104DD00085B08868002A0968DDF838B001914FEA8B
:104DE000A001029140F3B48002F1FF3A8A0004323C
:104DF00003920FE0002973D0C9F800600F9A0AF1FE
:104E0000FF3A09F104091344BAF1FF3F109A9344A1
:104E100000F09E80119819134FEA2B32029D00FB7F
:104E200001F1129800FB02F2091312130839083A33
:104E3000081101F00F01141102F00F02C1F1100668
:104E400005FB04040198C2F1100C02FB06F600EB0E
:104E5000840702FB01F201FB0CFC50F82440796846
:104E6000CCF5807504F0FF1E080A01F0FF11AD1BA0
:104E70004FEA14280CFB01F100F0FF10AD1A08F006
:104E8000FF18009103990CFB00F07C580F44009927
:104E900005FB080057F8047C05FB0E114FEA142EA1
:104EA00004F0FF144FEA172C0EF0FF1E07F0FF1757
:104EB00002FB04110CF0FF1C02FB0E0006FB0711A5
:104EC00006FB0C06090A06F0FF2601F0FF110E434F
:104ED000310EFF2990D0D9F800005FEA106C89D01C
:104EE0004F1C00F0FF1E06F0FF14C0F30720C7F5AB
:104EF0008075C6F30726002980D00CFB05552D0AC6
:104F000005FB0EFE294405FB00F507FB04EEFE2918
:104F100007FB06554FEA1E2E4FEA15250EF0FF1E21
:104F200005F0FF120BD80C4830F811500EFB05FEAF
:104F300005FB02F54FEA1E2E2D0A0EF0FF1E2D0274
:104F40004EEA016105F0FF252943C9F8001055E735
:104F500005B0BDE8F08F00BF080B06082DE9F04F43
:104F600083B08E68D0F800E0119F4FEAA60BD1F80D
:104F700000803C6B3D6D2415DDF830C00134002D00
:104F80005DD1796DB1FA81FA4FEA5A1A002A02F11D
:104F9000FF363ADDC146CDF800A00F981A134FEA4C
:104FA0002C31009D00FB02F2109800FB01F112145D
:104FB000091401FB0B2059F82000ADB9BD6BD7F8DF
:104FC00054A001951AF100083D6D3C6B18BF4FF0DD
:104FD00001081DB311B37D6B05FB0144BAF1000F4D
:104FE00016D1C4F307540134020E0D9920F07F400E
:104FF000013E04FB02F20B440E99120A8C4440EA73
:105000000260721C4EF8040BC7D103B0BDE8F08FEC
:10501000FD6BAA46019D0AFB01510191002AE0D0D7
:10502000B8F1000FDDD02115019D04F07F64C1EBC4
:105030002558B96C01FB08F802FB0844D1E74FF092
:10504000000AA3E72DE9F04F89B08D680068DDF80C
:105050005C800290A810D8F8304004904FEA2459A0
:105060000968D8F8504009F101000691DDF8489030
:105070000390002C40F0CA80D8F85410B1FA81F1A6
:1050800049090591002A02F1FF3B40F3A680049AEA
:105090000193920004320792019B4FEA29351813BD
:1050A000159B03FB00F0169B03FB05F5059B021304
:1050B0002913EBB9D8F854E00014D8F850301EF199
:1050C0000004D8F83060D8F8387018BF0124002BDD
:1050D00000F08A802D1400F08780D8F8343003FB6C
:1050E0000566BEF1000F7BD1C6F30756731C039310
:1050F000139B08390198083A01F00F0A0BF1FF3BA6
:105100001844149BCAF1100EBBF1FF3F0190994463
:105110004FEA2110049B4FEA221102F00F0203FB19
:105120000011069802FB0EFEC2F1100500EB810C87
:1051300050F821000AFB05F5CEF58074DCF8041068
:105140000AFB02F2079BA4EB05044FEA112701F0CA
:10515000FF114FEA1026A4EB02040EFB01F100F050
:10516000FF1A07F0FF175CF803009C4404FB0A1ABF
:105170000EFB07F706F0FF165CF8041C4FEA102C34
:1051800000F0FF1004FB06774FEA112E0CF0FF1C15
:1051900002FB00AA01F0FF110EF0FF1E02FB0C77CC
:1051A00005FB01AA039B05FB0E774FEA1A2A07F0BD
:1051B000FF270AF0FF1A47EA0A0E4FEA1E602EF098
:1051C0007F4E03FB00F0029B4FEA10204EEA006086
:1051D00043F8040B02937FF45FAF09B0BDE8F08F92
:1051E000D8F83C3003FB057700283FF47DAF002C56
:1051F0003FF47AAF3515D8F8484006F07F66C5EB26
:10520000275704FB07F700FB07666DE700210591B0
:1052100038E700BF2DE9F04F85B08E680968139F0D
:105220004FEAA60BD0F800C03C6B3D6D24150191F0
:10523000DDF838E00134002D40F09680796DB1FA48
:1052400081FA4FEA5A1A002A02F1FF3676DDCDE9DB
:10525000024A119A19134FEA2E30019D02FB01F107
:10526000129A02FB00F00914001400FB0B1255F80F
:105270002220039DC5B9D7F854A03D6D1AF100094D
:105280003C6BD7F8388018BF4FF00109002D5BD078
:10529000002859D07D6B05FB0044BAF1000F50D1B6
:1052A000C4F30754611C0291150E3ED00299DCF83C
:1052B000000005FB011502F0FF115FEA1069C2F35F
:1052C00007224FEA152505FB01F105FB02F20ED07E
:1052D000C5F5807800F0FF1AC0F3072009FB0888A5
:1052E0004FEA1828454408FB0A1108FB0022090A66
:1052F000120A01F0FF118DB1681EFE284FEA006509
:105300000CD81B4C02F0FF1234F8100001FB00F126
:1053100000FB02F2090A120A01F0FF1112022943EE
:1053200002F0FF220A43CCF800200F9A013E0CF154
:10533000040C1344109A9644721C8AD105B0BDE83F
:10534000F08FFD6B05FB00880029A9D0B9F1000F93
:10535000A6D02515B86C04F07F64C5EB285800FB77
:1053600008F801FB08449BE74FF0000A6BE700BF19
:10537000080B06082DE9F04F87B08D68D0F8009033
:10538000DDF854C0A8100968DCF8304001902615FB
:10539000DCF850400491701C0290002C40F0F88022
:1053A000DCF85410B1FA81F149090391002A02F1A5
:1053B000FF3840F3D480019A0093920004320592A2
:1053C000009B1813109B1C13139B03FB00F0149BF2
:1053D00003FB04F4039B01132213F3B9DCF854A07C
:1053E0000014DCF850301AF10005DCF83060DCF80D
:1053F000387018BF0125002B00F0B880241400F08D
:10540000B580DCF8343003FB0466BAF1000F40F0DD
:10541000A980C6F30756731C02930839083A019B0A
:1054200002F00F0B0811121101F00F01CBF1100A5D
:1054300003FB0202049801FB0AFAC1F1100500EB1C
:10544000820E50F822000BFB05F5CAF58074DEF8D9
:1054500004200BFB01F1059B641B170A02F0FF12ED
:1054600000F0FF1B060A641A5EF803000AFB02F252
:105470009E4407F0FF1706F0FF1604FB0B220AFB01
:1054800007F75EF804AC4FEA102E00F0FF104FEA69
:105490001A2B04FB067701FB00220AF0FF1A0EF01C
:1054A000FF1E0BF0FF1B05FB0A2201FB0E774FEAE4
:1054B000122A05FB0B770AF0FF1207F0FF273A4389
:1054C000100E3CD0029B02F0FF11D9F80040C2F34D
:1054D000072200FB0330260E4FEA102000FB01F1EB
:1054E00000FB02F20DD0C0F5807504F0FF17C4F385
:1054F000072406FB05552D0A284405FB071105FB6B
:105500000422090A120A01F0FF1188B1441EFE2C80
:105510004FEA04600CD8204B02F0FF1233F814401D
:1055200001FB04F104FB02F2090A120A01F0FF1167
:105530001202014302F0FF220A43C9F80020119B26
:1055400008F1FF38009A09F10409B8F1FF3F1A4445
:10555000109B0092129A134410937FF431AF07B05E
:10556000BDE8F08FDCF83C3003FB047700283FF403
:1055700050AF002D3FF44DAF3515DCF8484006F034
:105580007F66C5EB275704FB07F700FB076640E77C
:10559000002103910AE700BF080B0608002A2DE945
:1055A000F0470C9DD1F80090D1F81880D1F808E0B0
:1055B0000468DDE9081CDDE90A7617DD501E0A13D0
:1055C00001384FEA233A394405FB02F2634406FBF3
:1055D0000AFA12144FEA2A4A0EFB029212F80A2023
:1055E00058F8222044F8042B421CE8D1BDE8F0878B
:1055F0002DE9F04F006885B0D1F81880002A00909E
:105600000868896801900291DDF838A07FDD02F119
:10561000FF394A1C03920F991D134FEA2A32029C4C
:105620000B441199039F09F1FF3901FB05F510990E
:10563000B9F1FF3F8A4412994FEA253501FB02F286
:10564000A5F108054FEA22324FEA251105F00F05B2
:10565000A2F10802C5F110064FEA221002F00F0273
:1056600004FB0010019CC2F1100E02FB06F604EBD5
:10567000000102FB05F205FB0EFE205C4D7801EBFC
:10568000070BCEF5807C58F8200058F82550C95DEE
:10569000ACEB06044FEA152C05F0FF15A4EB020451
:1056A00058F821100EFB05F51BF801BC4FEA102736
:1056B0000CF0FF1C00F0FF1058F82BB00EFB0CFC98
:1056C00007F0FF1704FB00504FEA112E01F0FF1105
:1056D0004FEA1B2504FB07CC0EF0FF1E02FB010066
:1056E0000BF0FF1B02FB0ECC05F0FF1506FB0B00B9
:1056F000009A06FB05CC4FEA10200CF0FF2C00F0BE
:10570000FF104CEA000042F8040B009283D105B070
:10571000BDE8F08F2DE9F04F002A85B0D0F800E009
:105720000E68D1F818A0D1F808B0DDE90E9567DD54
:1057300002F1FF383446D4460CE019B3CEF800200D
:1057400008F1FF38109A2B440EF1040EB8F1FF3F18
:10575000914455D012984FEA2932191300FB02F2F6
:105760001198121400FB01F10BFB02420914525C68
:105770005CF82220110EFF29E0D0DEF800005FEA7D
:10578000106ADAD000F0FF164F1CC0F30720029613
:1057900002F0FF16C2F307220196C7F58076039246
:1057A0000029CDD00AFB0666029A360A06FB02FAE9
:1057B000019A314406FB00F607FB02AA039AFE2970
:1057C00007FB02664FEA1A2A4FEA16260AF0FF1A6A
:1057D00006F0FF120BD80C4830F811600AFB06FAED
:1057E00006FB02F64FEA1A2A360A0AF0FF1A3602B8
:1057F0004AEA016106F0FF263143CEF800109FE728
:1058000005B0BDE8F08F00BF080B06082DE9F04F8A
:10581000002A85B0D0F80090D1F81880086889680F
:105820000190029140F3BD8002F1FF3A4A1C0392BD
:1058300011E000297CD0C9F800600F9A0AF1FF3A04
:10584000109909F1040913440E9ABAF1FF3F0A4472
:105850000E9200F0A68011991D130E9A01FB05F51A
:1058600012991213029C2D13039F01FB02F2083DB3
:105870001213291105F00F05083AC5F11006101191
:1058800002F00F0204FB0010019CC2F1100E02FB9B
:1058900006F6211802FB05F205FB0EFE205C4D7892
:1058A00001EB070BCEF5807C58F8200058F8255006
:1058B000ACEB0604C95D4FEA152C05F0FF15A41AE0
:1058C00058F821100EFB05F5070A0CF0FF1C1BF819
:1058D00001BC00F0FF1007F0FF170EFB0CFC58F89E
:1058E0002BB004FB00504FEA112E01F0FF114FEADC
:1058F0001B2504FB07CC0EF0FF1E02FB01000BF082
:10590000FF1B02FB0ECC05F0FF1506FB0B0006FB90
:1059100005CC000A0CF0FF2C00F0FF104CEA00064A
:10592000310EFF2987D0D9F800005FEA106C80D0D3
:105930004F1C00F0FF1E06F0FF14C0F30720C7F550
:105940008075C6F3072600293FF477AF0CFB055599
:105950002D0A05FB0EFE294405FB00F507FB04EEAE
:10596000FE2907FB06554FEA1E2E4FEA15250EF0BD
:10597000FF1E05F0FF120BD80B4830F811500EFB3C
:1059800005FE05FB02F54FEA1E2E2D0A0EF0FF1E46
:105990002D024EEA016105F0FF250D43C9F80050C4
:1059A0004BE705B0BDE8F08F080B06082DE9F04F76
:1059B00085B0D0F800E0D1F80080139FD1F818909E
:1059C0003C6B3D6D2415D1F808B0DDF838C00134CA
:1059D000002D5FD1796DB1FA81FA4FEA5A1A002A87
:1059E00002F1FF363CDDCDF804A0CA46C14612984C
:1059F0004FEA2C311A13019D00FB01F11198091493
:105A000000FB02F201FB0B901214805C5AF820009C
:105A1000ADB9D7F85480BD6B18F10004039518BFD9
:105A200001243D6D02943C6B1DB311B37D6B05FBEE
:105A30000144B8F1000F16D1C4F307540134020E2B
:105A40000F9920F07F40013E04FB02F20B441099B5
:105A5000120A8C4440EA0260721C4EF8040BC6D154
:105A600005B0BDE8F08FFD6BA846039D08FB015112
:105A70000391002AE0D002990029DDD02115039D71
:105A800004F07F64C1EB2558B96C01FB08F802FBF8
:105A90000844D1E74FF0000AA1E700BF2DE9F04F1D
:105AA00087B000689846D1F81890DDF854E000906F
:105AB000DEF830400868241589680490DEF850301C
:105AC000601C02910190002B40F0CA80DEF8543037
:105AD000B3FA83F35B090393002A02F1FF3A40F320
